:100000000C9481140C94B2140C94B2140C94B21489
:100010000C94B2140C94B2140C94B2140C94B21448
:100020000C94B2140C94B2140C94B2140C94B21438
:100030000C94B2140C947CD10C94B2140C94B214A1
:100040000C94B2140C941A290C94B2140C94B2149B
:100050000C94B2140C94B2140C9462210C9488D3B6
:100060000C94B2140C9460AD0C9456AD0C94B21474
:100070000C94B2140C94B2140C94B2140C94B214E8
:100080000C94B2140C94B2140C94B2140C94B214D8
:100090000C94B2140C94B2140C94B2140C94B214C8
:1000A0000C94B2140C94B2140C94B2140C94B214B8
:1000B0000C94B2140C94B2140C94B2140C94B214A8
:1000C0000C94B2140C94B2140C94B2140C94B21498
:1000D0000C94B2140C94B2140C94107D0C94DA7C31
:1000E0000C94B214084AD73B3BCE016E84BCBFFDD2
:1000F000C12F3D6C74319ABD56833DDA3D00C77FF8
:1001000011BED9E4BB4C3E916BAAAABE0000008090
:100110003F05A84CCDB2D44EB93836A9020C50B91F
:10012000918688083CA6AAAA2ABE000000803F004B
:100130000C94947D0C94E7D90C944CD10C944FD82A
:100140000C94A2D90C94A1D80C9403AE0C945ED15B
:100150000C94BAD20C946AD90C949B7D0C94F3AD98
:100160000C9464D10C9437D10C9450D10C94A1D23E
:100170000C94A37D0C94F7AD0C947A7D0C9446D12D
:100180000C94E4AD0C945FD20C94897D0C94EBAD8F
:100190000C94CAAD0C943BD10C94ECD20C94E7DADD
:1001A0000C94AB7D0C9485D20C948DD20C9452D2CD
:1001B0000C949AD80C941DDA0C947DD20C94EFAD6B
:1001C0000C945AD20C9463D90C9417DF0C9487D9F1
:1001D0000C9435D80C9448D90C943ADA0C9476D116
:1001E0000C94D0DA0C9425D10C9469D20C946CD177
:1001F0000C9408DE0C94D9AD0C94C1DA0C94E2D2C4
:100200000C94CED20C9420D10C9473D20C94D8D2EE
:100210000C94EADA0C9468D10C9456D10C949BADF2
:100220000C9443D10C94F9DE0C94A7DA0C94C4D24C
:100230000C943FD10C94A77D0C94FBAD0C949F7D46
:100240000C9471D80C94ABD20C945AD10C9497D2D4
:100250000C944B7D0C94DED90C94B37D0C9472D12C
:100260004E414E494E495459494E46CDCCCC3D0A9B
:10027000D7233C17B7D13877CC2B329595E6241F7E
:10028000B14F0A000020410000C84200401C462037
:10029000BCBE4CCA1B0E5AAEC59D7400407A10F30A
:1002A0005A00A0724E18090010A5D4E80000E876A4
:1002B00048170000E40B54020000CA9A3B000000FB
:1002C000E1F505000080969800000040420F000014
:1002D00000A08601000000102700000000E80300D5
:1002E0000000006400000000000A0000000000019F
:1002F00000000000002C76D888DC674F0823DFC19F
:10030000DFAE59E1B1B796E5E3E453C63AE6519959
:100310007696E8E6C28426EB898C9B62ED407C6F82
:10032000FCEFBC9C9F40F2BAA56FA5F490055A2A39
:10033000F75C936B6CF9676DC11BFCE0E40D47FE45
:10034000F520E6B500D0ED902E030094357705003A
:1003500080841E080000204E0A000000C80C3333C1
:1003600033330F986E12831141EF8D2114893BE6D0
:100370005516CFFEE6DB18D1844B381BF77C1D9059
:100380001DA4BBE424203284725E228100C9F124C2
:10039000ECA1E53D274361703A0047322F473320F7
:1003A00062616420706172616D65746572730A00C8
:1003B000290A0020746F20003F5A206F7574206F47
:1003C000662072616E6765202800290A0020746F1C
:1003D00020003F59206F7574206F662072616E6730
:1003E0006520282D00290A0020746F20003F582026
:1003F0006F7574206F662072616E676520282D000E
:1004000050726F6265204F666673657420580022D3
:100410000A00656E7175657565696E672022006FEB
:100420006B00526573656E643A2000256973002580
:10043000696D20256973002569682025696D20256F
:10044000697300256964202569682025696D202568
:10045000697300256979202569642025696820254C
:10046000696D202569730020573A00426564204376
:100470006F6F6C696E672E2E2E0042656420486592
:100480006174696E672E2E2E0023646566696E6541
:100490002044454641554C545F0000626564004B62
:1004A0006420004B6920004B7020005049442041DB
:1004B00075746F74756E652066696E6973686564BE
:1004C000212050757420746865206C617374204B12
:1004D000702C204B6920616E64204B6420636F6E2A
:1004E0007374616E74732066726F6D2062656C6FD9
:1004F0007720696E746F20436F6E666967757261ED
:1005000074696F6E2E680A00504944204175746FFB
:1005100074756E65206661696C6564212074696D0F
:10052000656F75740A00504944204175746F747585
:100530006E65206661696C6564212054656D706527
:1005400072617475726520746F6F20686967680ADC
:1005500000204B643A2000204B693A2000204B7069
:100560003A20000A20436C61737369632050494448
:10057000200A00204B643A2000204B693A200020DA
:100580004B703A20000A204E6F206F7665727368B8
:100590006F6F740A002054753A2000204B753A2082
:1005A00000206D61783A2000206D696E3A200020AD
:1005B000643A200020626961733A20005049442067
:1005C0004175746F74756E652073746172740A007E
:1005D000504944204175746F74756E652066616979
:1005E0006C6564212054656D706572617475726507
:1005F00020746F6F20686967680A00504944204181
:1006000075746F74756E6500504944204175746F40
:1006100074756E65206661696C6564212042616451
:10062000206578747275646572206E756D6265728E
:100630000A00486F6D696E67204661696C656400E9
:100640006F70656E00545249474745524544003A21
:10065000200066696C616D656E74007A5F70726F00
:100660006265007A325F6D696E007A5F6D696E0057
:10067000795F6D696E00785F6D696E005265706FAD
:100680007274696E6720656E6473746F7020737422
:10069000617475730A0020746F6F206C6F6E672031
:1006A000657874727573696F6E2070726576656EA9
:1006B0007465640A0020636F6C64206578747275D9
:1006C00073696F6E2070726576656E7465640A007A
:1006D000000020C1000000000000000000008C426B
:1006E00000008C42000080405761726E696E673A6C
:1006F00020486F6D696E672042756D702044697681
:1007000069736F72203C20310A000202040000A0CD
:10071000400000A040000000400000D2430000CD97
:10072000430000E143FFFFFF4A3138004A30340004
:100730000000CD430000CD430000E143000020C194
:10074000000000000000000053657474696E677358
:100750002053746F72656400290A00206279746501
:10076000733B20637263200053657474696E677312
:100770002053746F726564202800454550524F4DD8
:10078000206461746173697A65206572726F722E7C
:100790000A00454550524F4D2056657273696F6E81
:1007A000204572726F7200454550524F4D20496E80
:1007B000646578204572726F7200454550524F4D06
:1007C00020435243204572726F7200290A00206252
:1007D000797465733B2063726320002073746F72B9
:1007E00065642073657474696E67732072657472D2
:1007F0006965766564202800202863616C63756CE8
:100800006174656429210A0020213D20004545507E
:10081000524F4D20435243206D69736D617463687C
:10082000202D202873746F7265642920002053697D
:100830007A653A2000496E6465783A200044494759
:1008400049504F5453204C6F616465640A00444919
:100850004749504F5453204C6F6164696E670A00DA
:10086000204D61726C696E3D563832290A0045454B
:1008700050524F4D2076657273696F6E206D6973AB
:100880006D617463682028454550524F4D3D0048C6
:10089000617264636F6465642044656661756C743D
:1008A0002053657474696E6773204C6F616465646E
:1008B0000A0000004843000048430000C84100000F
:1008C000C8410000A0420000C8420000C8430080A8
:1008D000CA43B80B0000B80B0000640000001027EA
:1008E00000003B20003A0A0020204D363033200023
:1008F00020440020204D34313220530046696C6181
:100900006D656E742072756E6F75742073656E738D
:100910006F723A002055004C0046696C616D656E3F
:1009200074206C6F61642F756E6C6F6164206C65F0
:100930006E677468733A0020204D393030204B00C8
:100940004C696E65617220416476616E63653A0040
:1009500020204D3835312058005A2D50726F626575
:10096000204F66667365740020204D343133205368
:1009700000506F7765722D4C6F7373205265636FF3
:10098000766572793A0020440020490020204D33DA
:10099000303420500020440020490020204D3330C6
:1009A000312050005049442073657474696E677338
:1009B0003A0020204D36363600456E6473746F70F1
:1009C0002061646A7573746D656E743A00204A0024
:1009D0002020473239205720490020204D34323022
:1009E0002053004175746F20426564204C65766524
:1009F0006C696E673A0020204D323036205800482E
:100A00006F6D65206F66667365743A00204A00203A
:100A1000530020204D323035204200416476616E13
:100A20006365643A20423C6D696E5F7365676D650E
:100A30006E745F74696D655F75733E20533C6D69BC
:100A40006E5F66656564726174653E20543C6D69D5
:100A50006E5F74726176656C5F6665656472617401
:100A6000653E204A3C6A756E635F6465763E002091
:100A7000540020520020204D323034205000416379
:100A800063656C65726174696F6E2028756E697438
:100A9000732F7332293A20503C7072696E745F6113
:100AA0006363656C3E20523C726574726163745F6F
:100AB000616363656C3E20543C74726176656C5F63
:100AC000616363656C3E0020204D32303120580058
:100AD0004D6178696D756D20416363656C65726108
:100AE00074696F6E2028756E6974732F7332293A9A
:100AF0000020204D3230332058004D6178696D75EB
:100B00006D206665656472617465732028756E6911
:100B100074732F73293A0053746570732070657273
:100B200020756E69743A0020440020204D32303028
:100B30002053002044697361626C65640A00466951
:100B40006C616D656E742073657474696E67733A59
:100B50000020286D6D2900202047323120202020E0
:100B60003B20556E69747320696E206D6D0024F40E
:100B7000D43050C38E20C2A24017828B7011127ADB
:100B8000910D816CD90AA861E108C75866076151C7
:100B900043061E4B5D05C145A7041A411104093DDA
:100BA0009803713931034036DB0265339102D4304A
:100BB0005402802E1D02632CEE01752AC501B02857
:100BC000A001102781018F2564012B244B01E02215
:100BD0003401AC211F018D200D01801FFC00841EFB
:100BE000ED00971DDF00B81CD200E61BC600201BDD
:100BF000BC00641AB200B219A8000A19A0006A1851
:100C00009900D117910040178B00B516840031165A
:100C10007E00B31579003A157300C7146F0058149D
:100C20006A00EE1366008813630025135E00C71286
:100C30005B006C12570015125400C1115100701165
:100C40004F0021114B00D61049008D10470046106F
:100C5000440002104200C00F4000800F3E00420FCF
:100C60003C00060F3B00CB0E3800930E37005C0EA5
:100C70003500270E3400F30D3200C10D3100900D08
:100C80003000600D2E00320D2D00050D2C00D90C0A
:100C90002B00AE0C2900850C29005C0C2700350CBC
:100CA00027000E0C2600E80B2400C40B2400A00B28
:100CB00023007D0B23005A0B2100390B2100180B58
:100CC0002000F80A1F00D90A1E00BB0A1E009D0A58
:100CD0001D00800A1D00630A1C00470A1B002C0A25
:100CE0001B00110A1A00F7091A00DD091900C409CE
:100CF0001900AB091900920917007B091800630954
:100D000017004C09160036091600200916000A09BA
:100D10001500F5081500E0081400CC081400B80808
:100D20001400A4081400900813007D0812006B083A
:100D30001300580812004608120034081100230856
:100D400011001208110001081100F0071000E0075F
:100D50001000D0071000C0071000B0070F00A10757
:100D6000100091070E0083070F0074070F0065073E
:100D70000E0057070E0049070E003B070D002E0717
:100D80000E0020070D0013070D0006070D00F906E1
:100D90000C00ED060D00E0060C00D4060C00C806A1
:100DA0000C00BC060C00B0060C00A4060B00990653
:100DB0000C008D060B0082060B0077060B006C06FC
:100DC0000B0061060A0057060B004C060A0042069B
:100DD0000A0038060A002E060A0024060A001A062F
:100DE0000A001006090007060A00FD050900F405BF
:100DF0000900EB050900E2050900D9050900D00545
:100E00000900C7050900BE050900B5050800AD05C4
:100E10000800A50509009C050800940508008C053C
:100E20000800840508007C050800740508006C05AE
:100E30000700650508005D050700560508004E051A
:100E40000700470507004005080038050700310581
:100E500007002A050700230507001C0506001605E4
:100E600007000F0507000805060002050700FB0440
:100E70000600F5040700EE040600E8040600E2049C
:100E80000700DB040600D5040600CF040600C904F1
:100E90000600C3040600BD040600B7040600B10442
:100EA0000500AC040600A6040600A00405009B048F
:100EB000060095040500900406008A0405008504D8
:100EC0000500800406007A0405007504050070041E
:100ED00005006B04050066040500610405005C0460
:100EE000050057040500520405004D0405004804A0
:100EF0000500430405003E0404003A0405003504DF
:100F00000500300404002C04050027040400230419
:100F100005001E0404001A04040016040500110450
:100F200004000D0404000904050004040400000486
:100F30000400FC030400F8030400F4030400F003BD
:100F40000400EC030400E8030400E4030400E003ED
:100F50000400DC030400D8030400D4030400D0031D
:100F60000400CC030400C8030300C503030024F4F9
:100F700004D9201BC40C5C0E9804C4095F026507E9
:100F80007101F405F900FB04B30048048700C103B4
:100F900069005803550003034500BE023A0084026D
:100FA000310053022A002902250004022000E40136
:100FB0001C00C8011900AF0117009801140084013A
:100FC0001300710110006101100051010E00430176
:100FD0000D0036010B002B010B0020010B00150149
:100FE00009000C01090003010800FB000800F300E0
:100FF0000800EB000700E4000600DE000600D80051
:101000000600D2000600CC000500C7000500C200A3
:101010000500BD000400B9000400B5000400B100E3
:101020000400AD000400A9000400A5000300A20014
:1010300003009F0004009B0003009800030095003C
:10104000020093000300900003008D0002008B005B
:101050000300880002008600020084000300810073
:1010600002007F0002007D0002007B000200790088
:101070000200770001007600020074000200720096
:101080000100710002006F0002006D0001006C00A1
:1010900002006A00010069000200670001006600AA
:1010A00001006500010064000200620001006100AF
:1010B0000100600001005F0002005D0001005C00B3
:1010C00001005B0001005A000100590001005800B6
:1010D00001005700010056000100550001005400B6
:1010E00001005300000053000100520001005100B4
:1010F0000100500001004F0001004E0000004E00B2
:1011000001004D0001004C0001004B0000004B00AD
:1011100001004A00010049000100480000004800A9
:1011200001004700010046000000460001004500A4
:10113000000045000100440001004300000043009E
:101140000100420000004200010041000000410097
:101150000100400001003F0000003F0001003E0090
:1011600000003E0001003D0000003D0001003C0089
:1011700000003C0000003C0001003B0000003B0080
:1011800001003A0000003A00010039000000390077
:10119000010038000000380000003800010037006E
:1011A0000000370001003600000036000000360065
:1011B000010035000000350000003500010034005A
:1011C0000000340000003400010033000000330050
:1011D0000000330001003200000032000000320045
:1011E000010031000000310000003100010030003A
:1011F000000030000000300001002F0000002F0030
:1012000000002F0000002F0001002E0000002E0023
:1012100000002E0001002D0000002D0000002D0018
:1012200000002D0001002C0000002C0000002C000C
:1012300000002C0001002B0000002B0000002B0000
:1012400000002B0001002A0000002A0000002A00F4
:1012500000002A00010029000000290000002900E8
:1012600000002900000029000100280000002800DB
:1012700000002800000028000000280001002700CE
:1012800000002700000027000000270000002700C2
:1012900001002600000026000000260000002600B5
:1012A00000002600010025000000250000002500A8
:1012B000000025000000250000002500010024009A
:1012C000000024000000240000002400000024008E
:1012D0000100230000002300000023000000230081
:1012E0000000230000002300000023000100220072
:1012F0000000220000002200000022000000220066
:101300000000220001002100000021000000210057
:101310000000210000002100000021000000210049
:10132000010020000000200000002000000020003C
:10133000000020000000200000002000000020002D
:1013400001001F0000001F0000001F0000001F0020
:1013500000001F0000001F0000001F0001001E0011
:1013600000001E0000001E0000001E000000C23130
:1013700000001C260000F4190000D80F0000EB0844
:101380000000C0040000750200004001000020437E
:101390006F756E7420583A00004265640045310054
:1013A000626564002C2073797374656D2073746FAB
:1013B0007070656421204865617465725F49443AC4
:1013C000200048656174696E67204661696C6564D8
:1013D0000048656174696E67206661696C656400C8
:1013E0004D3131322053687574646F776E0070012F
:1013F0002C0190012701B0012201C0011D01F00163
:1014000018011002130130020E016002090190025E
:101410000401C002FF000003FA004003F50080034E
:10142000F000D003EB002004E6007004E100E004CB
:10143000DC004005D700C005D2004006CD00D00634
:10144000C8008007C3003008BE00F008B900C0091A
:10145000B400B00AAF00B00BAA00D00CA500000E7B
:10146000A000500F9B00C010960050129100001475
:101470008C00C0158700B0178200B0197D00D01B0A
:101480007800001E730040206E0090226900F02456
:10149000640040275F0090295A00E02B5500102E71
:1014A000500020304B0010324600E03341009035B0
:1014B0003C001037370070383200A0392D00B03AA8
:1014C0002800A03B2300603C1E00103D1900903D09
:1014D0001400103E0F00703E0A00C03E0500003FA1
:1014E0000000403FFBFF803FF6FFC03FF1FF544844
:1014F00045524D414C2052554E4157415900546878
:1015000065726D616C2052756E617761790045720C
:10151000723A204D415854454D50004D4158544564
:101520004D50207472696767657265640045727218
:101530003A204D494E54454D50004D494E54454D6D
:10154000502074726967676572656400202F0020FF
:1015500042403A0020403A0020573A007C3C3E5E30
:101560002B3D3F2F5B5D3B2C2A225C0043616E6E5E
:101570006F74206F70656E207375626469722000ED
:10158000534420496E6974204661696C00534420BD
:1015900063617264206F6B0A006F70656E526F6FCB
:1015A00074206661696C65640A00766F6C756D65A0
:1015B0002E696E6974206661696C65640A004E6FFD
:1015C00020534420636172640A004D323320257336
:1015D000002E0A006F70656E206661696C65642C70
:1015E0002046696C653A200046696C652073656C1D
:1015F00065637465640A002053697A653A20004681
:10160000696C65206F70656E65643A2000454E44D4
:1016100020535542524F5554494E450A00222070DE
:101620006F73002220706172656E743A2200535508
:1016300042524F5554494E452043414C4C20746111
:10164000726765743A220053756263616C6C204F57
:10165000766572666C6F770045786365656465646E
:10166000206D617820535542524F5554494E4520C4
:1016700064657074683A310A00434F4D4D554E49C8
:10168000434154494F4E0044525952554E00455221
:10169000524F525300494E464F004543484F004574
:1016A00072726F722077726974696E6720746F202E
:1016B000454550524F4D210A0053544F5050454418
:1016C0002E20005072696E7465722073746F707092
:1016D00065642064756520746F206572726F727323
:1016E0002E2046697820746865206572726F7220BA
:1016F000616E6420757365204D39393920746F200F
:10170000726573746172742E202854656D706572F1
:1017100061747572652069732072657365742E201B
:1017200053657420697420616674657220726573F4
:1017300074617274696E67290A004E6F2043686590
:10174000636B73756D2077697468206C696E6520B2
:101750006E756D6265722C204C617374204C696EDD
:10176000653A20004E6F20436865636B73756D208A
:1017700077697468206C696E65206E756D6265723C
:101780002C204C617374204C696E653A20006368AC
:1017900065636B73756D206D69736D617463682C1F
:1017A000204C617374204C696E653A20004C696E60
:1017B00065204E756D626572206973206E6F7420AE
:1017C0004C617374204C696E65204E756D62657254
:1017D0002B312C204C617374204C696E653A2000CB
:1017E0004D3131300053442072656164206572725E
:1017F0006F720A002121204B494C4C2063617573A4
:10180000656420627920746F6F206D75636820694C
:101810006E6163746976652074696D65202D20633F
:10182000757272656E7420636F6D6D616E643A20BF
:1018300000486F74656E642049646C652054696D5E
:10184000656F757400486F74656E642049646C65DB
:101850002054696D656F75740A00627573793A205A
:1018600070617573656420666F7220696E7075743F
:101870000A00627573793A20706175736564206639
:101880006F7220757365720A00627573793A207001
:10189000726F63657373696E670A004D6564696191
:1018A00020496E736572746564004A3032004A30B4
:1018B00031004A3030004D656469612052656D6FBA
:1018C000766564004D313030305300506F7765726B
:1018D000204F7574616765004A3233004A31350024
:1018E0004D363030004A3131005072696E74657285
:1018F0002068616C7465642E206B696C6C282920EB
:1019000063616C6C6564210A006563686F3A004529
:1019100072726F723A0042696C696E656172204C36
:101920006576656C696E6720477269643A0A005390
:10193000656E64204D31303820746F207265737588
:101940006D650A00496E736572742066696C616D1D
:10195000656E7420616E642073656E64204D313055
:10196000380A005265686561742066696E6973683B
:1019700065642E00526568656174696E672E2E2E4F
:10198000004865617465722054696D656F757400F7
:1019900053656E64204D31303820746F2068656166
:1019A00074206E6F7A7A6C650A004E6F7A7A6C6575
:1019B000205061726B656400486F74656E642074BA
:1019C0006F6F20636F6C640A0046696C616D656EB1
:1019D000742050757267696E672E2E2E004C6F61F1
:1019E000642046696C616D656E7400496E73657242
:1019F000742066696C616D656E7420616E6420731D
:101A0000656E64204D3130380A004F46460A004664
:101A100061646520486569676874200042656420D8
:101A20004C6576656C696E6720004661696C65641B
:101A300020746F20656E61626C6520426564204C85
:101A40006576656C696E670A00496E76616C6964DB
:101A5000206D6573682E0A004732372F6E2047319C
:101A60002059302046353030300050726F62696E38
:101A70006720506F696E740025532025692F2569F2
:101A8000002E0A002F0050726F62696E67206D652C
:101A9000736820706F696E74200020284452595278
:101AA000554E2900473239204175746F20426564D4
:101AB000204C6576656C696E67003F20284C2C527F
:101AC0002C462C4229206F7574206F6620626F753A
:101AD0006E64732E0A003F2856296572626F736523
:101AE000206C6576656C20696D706C6175736962D8
:101AF0006C652028302D34292E0A00426164205A5A
:101B00002076616C75650A004E6F2062696C696EA3
:101B100065617220677269640A004F4646004F4E45
:101B20000020580020204D61783A2000200020201D
:101B30004D696E3A2000536F667420656E6473744D
:101B40006F70733A20004732380053656C656374D8
:101B50002053442066696C65207468656E2070723D
:101B600065737320726573756D650A0052657375D0
:101B70006D696E672066726F6D20706F7765722079
:101B80006F75746167652E2E2E0A004D3234205316
:101B9000256C642054256C64004739322E39204569
:101BA000257300473120462564004731205A2573AC
:101BB0002046323030004731205825732059257394
:101BC00020463330303000473120452564204632EE
:101BD0003030004D34323020532569205A257300AF
:101BE0004D3130362050256920532569004D313064
:101BF0003920532569004D31393020532569004D76
:101C000032303020442573004731204635303020B3
:101C10005A2573004732385230004739322E392066
:101C20004530205A300A47315A2573004D3432303E
:101C3000205330205A300020496E76616C69642050
:101C400065787472756465722000536C6565702EDA
:101C50002E2E00205A3A200020593A200042656476
:101C600020583A20004D65736820706F696E7420AB
:101C70006F7574206F662072616E67650A00436C31
:101C800069636B20746F20526573756D652E2E2EFF
:101C9000004E6F204D6F76652E00456E642066699C
:101CA0006C65206C6973740A00426567696E206612
:101CB000696C65206C6973740A004E6F206D6564F1
:101CC00069610A00286E6F2066696C65290043759A
:101CD0007272656E742066696C653A200053442008
:101CE0007072696E74696E67206279746520004E47
:101CF0006F74205344207072696E74696E670A00B5
:101D00005072696E742074696D653A20000A5374CC
:101D10006174733A2046696C616D656E74207573E9
:101D200065643A20002C204C6F6E67657374206ADE
:101D30006F623A2000546F74616C2074696D653A6B
:101D4000200053746174733A20002C204661696C42
:101D500065643A20002C2046696E69736865643AB0
:101D600020005072696E74733A200053746174736A
:101D70003A2000436F6F6C696E672E2E2E00486507
:101D80006174696E672E2E2E0045202553006F6BFF
:101D9000006F6666009A1695168E16871679164499
:101DA000454255473A004D313133205300334420EA
:101DB0005072696E746572204F46462E004348414A
:101DC0004D4245525F54454D504552415455524540
:101DD00000424142595354455050494E47004152E8
:101DE0004353004D4F54494F4E5F4D4F44455300B0
:101DF000544845524D414C5F50524F54454354490D
:101E00004F4E004C4F4E475F46494C454E414D4565
:101E1000004155544F5245504F52545F53445F5305
:101E20005441545553005344434152440050524F7F
:101E30004D50545F535550504F525400454D4552EC
:101E400047454E43595F5041525345520043415319
:101E5000455F4C494748545F4252494748544E45B4
:101E6000535300544F47474C455F4C4947485453E0
:101E700000534F4654574152455F504F574552000B
:101E80004255494C445F50455243454E54004C45E1
:101E900056454C494E475F44415441005A5F5052A9
:101EA0004F42450052554E4F5554004155544F4CEA
:101EB0004556454C005052494E545F4A4F420050DF
:101EC000524F4752455353004155544F5245504F7E
:101ED00052545F54454D5000564F4C554D45545249
:101EE000494300454550524F4D0042494E415259D9
:101EF0005F46494C455F5452414E5346455200534C
:101F0000455249414C5F584F4E5F584F4646004638
:101F100049524D574152455F4E414D453A4D6172D0
:101F20006C696E20322E302E372E3220284E6F767E
:101F300020313320323032302031373A31383A33A1
:101F4000322920534F555243455F434F44455F5517
:101F5000524C3A68747470733A2F2F6769746875BD
:101F6000622E636F6D2F4D61726C696E4669726D82
:101F7000776172652F4D61726C696E2050524F54BB
:101F80004F434F4C5F56455253494F4E3A312E30D6
:101F9000204D414348494E455F545950453A3344DA
:101FA000205072696E7465722045585452554445EC
:101FB000525F434F554E543A3120555549443A6388
:101FC000656465326132662D343161322D343734C7
:101FD000382D396231322D6335356336326633360A
:101FE0003766660A002F2F20002052004163636588
:101FF0006C65726174696F6E3A2050003F4A206FC1
:102000007574206F662072616E67652028302E30EF
:102010003120746F20302E33290A0046523A0020B6
:10202000466C6F773A200020643A0020693A00201D
:10203000703A00496E76616C6964206578747275D7
:102040006465720A0020643A0020693A0020703A00
:102050000064697300656E0043290A0061626C6563
:102060006420286D696E2074656D702000436F6C6C
:1020700064206578747275646573206172652000F0
:1020800046696C616D656E742072756E6F75742033
:1020900064697374616E636520286D6D293A200050
:1020A00046696C616D656E742072756E6F75742013
:1020B000004D34323120696E636F72726563742033
:1020C000706172616D657465722075736167650A10
:1020D000004D65736820706F696E74206F75742091
:1020E0006F662072616E67650A004F66667365747D
:1020F00073204170706C696564004572723A2054B7
:102100006F6F206661722100546F6F2066617220CC
:1021100066726F6D207265666572656E63652070AC
:102120006F696E740A00454550524F4D204F4B0A5F
:1021300000205A323A004475616C20456E64737415
:102140006F702041646A7573746D656E7420286DBC
:102150006D293A20002E0A002028302D3130290028
:102160002076616C7565206F7574206F66207261D2
:102170006E676500416476616E6365204B3D00507B
:102180006F7765722D6C6F7373207265636F766500
:10219000727920004D383458594500446F6E6520DF
:1021A0007072696E74696E672066696C650A004DAD
:1021B0003737004D333100496E76616C69642065B4
:1021C000787472756465720A005072696E7420507A
:1021D0006175736564002E0A0044656C6574696FEF
:1021E0006E206661696C65642C2046696C653A20D6
:1021F0000046696C652064656C657465643A002E00
:102200000A006F70656E206661696C65642C2046FB
:10221000696C653A200057726974696E6720746F43
:102220002066696C653A2000667265736800646FA9
:10223000696E67002066696C653A20004E6F7720F2
:102240000000000A0B02090C0D0E08070304010030
:10225000000000000000000000000000000000007E
:10226000000000000000000000000000001211103B
:10227000000000000000000000000000000000005E
:10228000000000000000004A3132004D343230209E
:102290005331205631004A3137001000C902100175
:1022A0002C014001220170011801B0010E01F00162
:1022B00004015002FA00B002F0003003E600D0033F
:1022C000DC009004D2007005C800A006BE00000823
:1022D000B400B009AA00D00BA000600E96006011F7
:1022E0008C000015820020197800C01D6E00A0220D
:1022F0006400B0275A00902C500000314600E034B2
:102300003C0010383200903A2800603C1E00A03D8E
:102310001400803E0A00203F00002020506C616EB7
:102320006E657242756666657242797465733A20AD
:10233000002046726565204D656D6F72793A200008
:10234000436F6D70696C65643A204E6F762031334F
:1023500020323032300A00204C6173742055706492
:10236000617465643A20323032302D31302D313590
:10237000207C20417574686F723A20284E69636B27
:102380002057656C6C732C20436869726F6E204215
:1023900075696C64290A00322E302E372E320A00FD
:1023A0004D61726C696E0020536F6674776172655F
:1023B0002052657365740A00205761746368646F06
:1023C000672052657365740A002042726F776E2031
:1023D0006F75742052657365740A002045787465C2
:1023E000726E616C2052657365740A00506F776578
:1023F0007255700A0073746172740A006175746FAB
:1024000025632E6700473237004D3130303100658B
:1024100072726F722077726974696E6720746F20B0
:1024200066696C650A00446F6E6520736176696E3B
:10243000672066696C652E0A004D32390020503ADB
:1024400000205A3A0020593A0020583A00656E643C
:1024500073746F7073206869743A200050726F62F1
:10246000696E67204661696C65640A0050726F622C
:10247000696E67204661696C656400205A3A2000E5
:1024800020593A200042656420583A2000486F6D78
:102490006520257325732573204669727374004A7D
:1024A00031380046696C616D656E742050757267D5
:1024B000696E672E2E2E004A3138005265686561BC
:1024C000742066696E69736865642E004A3138004D
:1024D0004865617465722054696D656F7574004A52
:1024E0003138004E6F7A7A6C65205061726B65648A
:1024F000005072696E742050617573656400220A21
:1025000000556E6B6E6F776E20636F6D6D616E64DC
:102510003A202200204500205A00205900204D3941
:102520003220580020453A00205A3A0020593A00FB
:10253000583A004A3039004A3037004A31300045B5
:10254000787472756465722074656D702061626E56
:102550006F726D616C21203A20004A3130004D3598
:1025600030310A4D3432302053310041333156205E
:10257000004133315620004133315620004D353073
:10258000300A004D3530310A4D3432302053310A93
:10259000004A3236004732380A473239004732396A
:1025A000004A3236004A3234004732380A0041329B
:1025B0003956200043616E6E6F7420656E746572CB
:1025C000207375626469723A20004A3231004A32DF
:1025D00031004A3230005072696E742041626F726D
:1025E000746564004D3234004D323520500A4D324E
:1025F00034004A3132004D38330A473120452D35F9
:10260000302046313230300A4D3832004D38330AEE
:1026100047312045353020463730300A4D383200BA
:102620004732380A00473238205A0A0047323820E9
:10263000590A0047323820580A00413230562000EB
:102640004A3132004D313030300A004A3034004DCA
:102650003130303020430A004A3136004D313030BD
:102660003020430A004A3136004A303500322E30DD
:102670002E372E32004A333320004A303200204DAC
:1026800000204820004137562000413656202D2D8D
:102690002D004136562000205A3A200020593A2079
:1026A0000041355620583A2000413456200041332D
:1026B000562000413256200041315620004130560C
:1026C0002000DB0FC93F45BCDA3F8FB30240FCF06E
:1026D000274056946140FE4B9B4084A5D840E023A0
:1026E0001841346A5641E859974164DBD5416E2759
:1026F0001742B4B75542CE1A9742C8AED542B588F4
:102700005A43D40684BFA65FA7BF7443E0BF10B18D
:102710001AC01C2C58C0E8F697C0B849D6C04E4E17
:1027200017C124D355C1802497C1A0B5D5C1121AB1
:1027300017C244AE55C2781797C26CACD5C2678831
:102740005AC320746F6F206C6F6E67206578747247
:102750007573696F6E2070726576656E7465640A54
:102760000020636F6C6420657874727573696F6E96
:102770002070726576656E7465640A00334420507B
:1027800072696E7465722052656164792E005072B0
:10279000696E74696E672E2E2E004A313400454EE4
:1027A0004400464E20004A303800426564204865A7
:1027B0006174696E672E2E2E004A3036004520481F
:1027C000656174696E672E2E2E004A313600507294
:1027D000696E742041626F72746564004A3138001A
:1027E0005072696E7420506175736564004A3138A7
:1027F00000526568656174696E672E2E2E004A323C
:1028000035004731205A353020463530300050727F
:102810006F62696E67204661696C6564004A323593
:10282000004D3530300A473237003344205072694A
:102830006E7465722052656164792E000200002278
:1028400000250028002B002E00310034000201007A
:1028500000050108010B0100002100240027002AC7
:10286000002D003000330001010000040107010ABF
:102870000105050505070508080808020202020A05
:102880000A08080404040401010101010101010313
:1028900003030303030303040707070C0C0C0C0CCE
:1028A0000C0C0C0202020206060606060606060BC1
:1028B0000B0B0B0B0B0B0B01021020200808102038
:1028C00040102040800201020108040201010204BC
:1028D000081020408080402010080402018004027B
:1028E00001804020100804020108040201010204D2
:1028F000081020408001020408102040800017DFEB
:10290000F9DE11241FBECFEFD1E2DEBFCDBF00E064
:102910000CBF13E0A0E0B2E0EEE3F9EE01E00BBF84
:1029200002C007900D92A83BB107D9F727E1A8EBA9
:10293000B3E001C01D92A930B207E1F714E1C0E88D
:10294000D4E100E006C021970109802FFE010E941A
:10295000FDF3CF37D10780E00807A9F70E94EBDF2E
:102960000C948DF40C940000CF93DF93C8E9D3E16D
:1029700020E030E040EA52E460918C1370918D13B6
:1029800080918E1390918F130E9417F387FF17C0C9
:1029900080E0FE01C49120910B0190E0B0E0A0E046
:1029A00004C0B695A79597958795CA95D2F780FDEF
:1029B0000EC0207220930901DF91CF910895FE018E
:1029C000949181E001C0880F9A95EAF7E2CF2095B3
:1029D000F0CF8091D7139091D813891B8F7019F481
:1029E00090E080E008959091D413992351F08330C2
:1029F00030F48FEF890F19F08093D413F1CF109238
:102A0000D4138091D81327E5829FC00111248A5DD9
:102A1000944FFC01208120FDE3CF2091D8132F5F3C
:102A20002F702093D5133091D8132091D6133213E1
:102A300004C02091D5132093D6130895CF92DF922E
:102A4000EF92FF921F93CF93DF9320916D02222389
:102A500009F48DC0EC011091340A10FF2CC0C09015
:102A60006F02D0907002E0907102F09072022881A3
:102A700039814A815B81C701B6010E9417F318169C
:102A800024F4C882D982EA82FB82C0907B02D09073
:102A90007C02E0907D02F0907E02288139814A819B
:102AA0005B81C701B6010E9417EA87FF04C0C88294
:102AB000D982EA82FB8211FF2CC0C0907302D090B1
:102AC0007402E0907502F09076022C813D814E8177
:102AD0005F81C701B6010E9417F3181624F4CC8257
:102AE000DD82EE82FF82C0907F02D0908002E09073
:102AF0008102F09082022C813D814E815F81C7016D
:102B0000B6010E9417EA87FF04C0CC82DD82EE8204
:102B1000FF8212FF2CC0C0907702D0907802E09024
:102B20007902F0907A02288539854A855B85C7014C
:102B3000B6010E9417F3181624F4C886D986EA86CF
:102B4000FB86C0908302D0908402E0908502F090D2
:102B50008602288539854A855B85C701B6010E94B2
:102B600017EA87FF04C0C886D986EA86FB86DF910C
:102B7000CF911F91FF90EF90DF90CF900895CF936A
:102B8000C82FCB010E94D57D8FE496E00E94D57DB1
:102B900080E496E0CC2311F085E496E00E94D57D98
:102BA0008AE0CF910C94CE7D0F931F93CF93811128
:102BB00013C0C42F8B010E94568082EE98E00E94C1
:102BC000D57DC8010E94D57DCC2331F08AE0CF911C
:102BD0001F910F910C94CE7DCF911F910F9108956D
:102BE00061E0FC0180810E94F0D08FEF0C941EAE5A
:102BF000DF92EF92FF920F931F93CF93DF938C019D
:102C0000C62FD22FF32EE42ED52EFC0182810E94F6
:102C10002AAE60E0F80180810E94F0D00E9466D365
:102C20008C2F80640E941EAE8D2D0E941EAE8E2DB4
:102C30000E941EAE8F2D0E941EAE8D2F0E941EAED2
:102C400087E8C11101C085E90E941EAECC3011F4A5
:102C50000E9423AEC0E00E9423AEF801838387FF69
:102C600004C0CF3F11F0CF5FF6CFDF91CF911F911E
:102C70000F91FF90EF90DF9008950F931F93CF93E4
:102C8000DF93EC0189018C81833039F089E0440FB6
:102C9000551F661F771F8A95D1F79A01AB0168E12E
:102CA000CE010E94F81581114AC08EEF8EBDF80149
:102CB000C8019E5F0DB407FEFDCF20812EBD0DB46F
:102CC00007FEFDCF21812EBD3296E817F90791F757
:102CD0000DB407FEFDCF8FEF0E941EAE8FEF0E9456
:102CE0001EAE0E9423AE8B838F71853089F40E94C3
:102CF00066D3182F882301F120E030E0A9016DE0B0
:102D0000CE010E94F815882351F086E1898305C021
:102D100083E18983CE010E94F01510E004C00E9477
:102D200023AE8111F2CFCE010E94F015812FDF91E9
:102D3000CF911F910F91089587E18983F4CF86E0A9
:102D4000E5CFCF92DF92EF92FF920F931F93CF9335
:102D5000DF93EC0189018C81833039F089E0440FE5
:102D6000551F661F771F8A95D1F79A01AB0161E164
:102D7000CE010E94F815882381F084E08983CE017A
:102D80000E94F01510E0812FDF91CF911F910F91DC
:102D9000FF90EF90DF90CF9008950E9424D36B01B5
:102DA0007C012CE2C20E21E0D21EE11CF11C0E942B
:102DB00023AE8B838F3F61F40E9424D36C197D096D
:102DC0008E099F0997FDF3CF81E1898310E01BC035
:102DD0008E3FE9F48FEF8EBDF801D801A150BE4FB0
:102DE0000DB407FEFDCF9EB591938EBDAE17BF0704
:102DF000B9F70DB407FEFDCF8EB58C930E9423AEBC
:102E00000E9423AE11E0CE010E94F015BCCF8FE0EE
:102E1000DCCFBC0184ED95E10E943F8081ED95E11E
:102E20000C94D57D80911D1483FF03C08460809332
:102E30001D140895FC01938591FD13C0987121E044
:102E4000903109F020E080911D1420FB84F98093DB
:102E50001D14903141F08085873419F481858E37B7
:102E600011F480E0089581E00895FC0120E03EE245
:102E7000DB014D91BD01403249F0283011F430831F
:102E80003196DB0111974C91408331962F5F2B30A7
:102E900079F710820895CF9380917B13C1E0882346
:102EA000A1F0409173135091741360917513709158
:102EB000761323E731E180917C1390917D130E947A
:102EC0003D16C82F811104C0C0E08C2FCF9108950A
:102ED00040917713509178136091791370917A1320
:102EE000411551056105710591F023E731E18091AC
:102EF0007C1390917D130E943D16882329F3109234
:102F00007713109278131092791310927A1310920B
:102F10007B13DBCFCF92DF92EF92FF92CF936B01C7
:102F20007C01C42F8091731390917413A091751339
:102F3000B09176138C159D05AE05BF0501F10E9479
:102F40004B17811108C0C0E08C2FCF91FF90EF90FC
:102F5000DF90CF90089523E731E1B701A60180917A
:102F60007C1390917D130E94A116882361F3C09277
:102F70007313D0927413E0927513F0927613CC23EE
:102F800021F081E080937B13DFCFC1E0DDCF4F9252
:102F90005F926F927F928F929F92AF92BF92CF92E9
:102FA000DF92EF92FF920F931F93CF93DF93EC0189
:102FB000423051056105710590F480E0DF91CF91B9
:102FC0001F910F91FF90EF90DF90CF90BF90AF9047
:102FD0009F908F907F906F905F904F90089589851C
:102FE0009A85AB85BC850196A11DB11D84179507F7
:102FF000A607B70710F38F898031C9F5852E962E65
:10300000A72EBB248B899C89AD89BE89880E991E09
:10301000AA1EBB1E280139016A017B0141E0C501DE
:10302000B4010E948A17882341F29F89903181F56B
:10303000DD24EE24FF24F601EE0FFF1FED58FE4EB7
:10304000118300839A89923008F4B8CF4D815E8154
:103050006F817885840E951EA61EB71E8092771309
:1030600090927813A0927913B0927A13A7CF8032FE
:1030700009F0A3CF8B899C89AD89BE894A015B0188
:10308000E7E0B694A79497948794EA95D1F7BECFDA
:10309000E894C7F8DD24EE24FF24F601EE0FFF1FAD
:1030A000EE0FFF1FED58FE4E408251826282738206
:1030B000C9CFCF92DF92EF92FF920F931F93CF93DE
:1030C000DF93FC0181859285A385B4850196A11DBE
:1030D000B11D84179507A607B70750F480E0DF916C
:1030E000CF911F910F91FF90EF90DF90CF900895B7
:1030F00087898031A9F5BB27A72F962F852FC388F5
:10310000D488E588F6888C0D9D1DAE1DBF1DE90194
:103110006A017B018F014091731350917413609188
:1031200075137091761384179507A607B70749F5AD
:10313000F8018789803169F5B701A601552766270F
:103140007727440F551F4D585E4EFA0180819181BB
:10315000B0E0A0E088839983AA83BB8381E0BFCFDE
:10316000803209F0BBCFC388D488E588F688DB01BC
:10317000CA01C7E0B695A79597958795CA95D1F7E7
:10318000C2CF40E0BC01CD010E948A178111D0CF8F
:10319000A5CFB701A6014F77552766277727440F9C
:1031A000551F440F551F4D585E4EFA018081918185
:1031B000A281B381BF70CECF4F925F926F927F9208
:1031C000AF92BF92CF92DF92EF92FF920F931F9335
:1031D000CF93DF9300D01F92CDB7DEB78C01498328
:1031E0005A836B837C835901C12CD12C7601412CED
:1031F00082E0582E612C712C49815A816B817C812F
:103200009E012F5F3F4FC8010E945918882319F172
:10321000F8018585A301920104C0220F331F441FCA
:10322000551F8A95D2F7DA01C901C80ED91EEA1EC8
:10323000FB1E49815A816B817C8187898031F1F441
:1032400081E0483F5F4F61057105B0F2F501C08232
:10325000D182E282F3820F900F900F900F90DF9156
:10326000CF911F910F91FF90EF90DF90CF90BF9083
:10327000AF907F906F905F904F90089581E0483FAE
:103280005F4F6F4F7F4008F4B7CFE0CF0F931F938E
:10329000CF93DF93FC012381222331F080E0DF9183
:1032A000CF911F910F9108958B01EC01FB0187894C
:1032B000803139F582E08B831D8A1E8A1F8A188E21
:1032C000808D918DB0E0A0E025E0880F991FAA1FA6
:1032D000BB1F2A95D1F7898B9A8BAB8BBC8B1A8F2E
:1032E000098F81E08983188619861A861B861C82BD
:1032F0001D821E821F82188A1C861D861E861F86BE
:10330000CECF803259F683E08B83428D538D648D0E
:10331000758D4D8B5E8B6F8B788F9E012F5E3F4F2F
:10332000C8010E94DC188111DACFB8CF3F924F92CA
:103330005F926F927F928F929F92AF92BF92CF9245
:10334000DF92EF92FF920F931F93CF93DF93CDB74E
:10335000DEB72C970FB6F894DEBF0FBECDBF5C0171
:10336000DC0159968D909C90F40181859285A3850E
:10337000B4859C01AD012F5F3F4F4F4F5F4F2987B1
:103380003A874B875C87D50114964D905D906D9080
:103390007C901797411451046104710409F459C0D9
:1033A000BFEF4B1A5B0A6B0A7B0A312C7301620177
:1033B0001D821E821F821886F40181859285A38555
:1033C000B4852D813E814F815885281739074A07DA
:1033D0005B0708F056C089859A85AB85BC858C153E
:1033E0009D05AE05BF0550F482E0C82ED12CE12C1E
:1033F000F12C92E0492E512C612C712C9E012F5FF3
:103400003F4FB701A601C4010E9459188823C9F192
:1034100089819A81AB81BC81892B8A2B8B2B01F10D
:10342000260137019FEF491A590A690A790A2D8145
:103430003E814F8158852F5F3F4F4F4F5F4F2D8308
:103440003E834F8358873FEFC31AD30AE30AF30A38
:10345000B3CF408051806280738033243394A6CFF1
:10346000C414D504E604F70411F70FEF1FEF2FEF94
:103470003FE0B701A601C4010E94C717782E811151
:103480001AC0712C872D2C960FB6F894DEBF0FBE94
:10349000CDBFDF91CF911F910F91FF90EF90DF9003
:1034A000CF90BF90AF909F908F907F906F905F90E4
:1034B0004F903F900895F501448155816681778151
:1034C000411551056105710539F097018601C40167
:1034D0000E94C7178823A9F2D5011496CD92DD92D8
:1034E000ED92FC921797332051F0D701C601019657
:1034F000A11DB11DF40180839183A283B383F501E3
:1035000085899689A789B08D892B8A2B8B2B09F009
:10351000B9CFC58AD68AE78AF08E81818068818397
:10352000B1CF8F929F92AF92BF92CF92DF92EF92E4
:10353000FF920F931F93CF93DF93EC018B81811147
:103540000EC080E0DF91CF911F910F91FF90EF901F
:10355000DF90CF90BF90AF909F908F900895098992
:103560001A892B893C89041715072607370748F362
:103570004A015B01823031F488869986AA86BB862F
:1035800081E0E0CF81149104A104B10449F41886CC
:1035900019861A861B861C821D821E821F82F0CF0E
:1035A000088519852A853B85E98DFA8D858590E00A
:1035B0000996B901A8014150510961097109082E04
:1035C00004C076956795579547950A94D2F775018B
:1035D0006401E1E0CE1AD108E108F10804C0F694D4
:1035E000E794D794C7948A95D2F7C416D506E60611
:1035F000F70620F0012B022B032B11F58D899E89F4
:10360000AF89B88D8C839D83AE83BF838E010C5FA1
:103610001F4FC114D104E104F10409F4ADCF4C8172
:103620005D816E817F819801898D9A8D0E945918E4
:1036300091E0C91AD108E108F1088111EACF81CFE0
:10364000C41AD50AE60AF70AE1CF2F923F924F92A9
:103650005F926F927F928F929F92AF92BF92CF9222
:10366000DF92EF92FF920F931F93CF93DF9300D0DF
:103670001F92CDB7DEB79C838B834B017A01DC01AF
:1036800013968C91811119C08FEF9FEF0F900F90BF
:103690000F900F90DF91CF911F910F91FF90EF90BE
:1036A000DF90CF90BF90AF909F908F907F906F9062
:1036B0005F904F903F902F900895EB81FC81818126
:1036C00080FFE2CF81899289A389B48940855185A1
:1036D00062857385841B950BA60BB70BA70170E061
:1036E00060E084179507A607B70708F47C01670117
:1036F0008B819C8104969A838983612C32E0732E9E
:10370000C114D10409F4B7C0AB81BC8118964D91A6
:103710005D916D917C911B975A01B1E0BB22EB81C9
:10372000FC81818D928D1A012B0129E056944794DA
:10373000379427942A95D1F72381223091F5DC0123
:103740005A966D917D918D919C915D97620D731D3F
:10375000841D951D83010A191B09C016D10608F4A2
:1037600086010115B2E01B0771F4209173133091AB
:103770007413409175135091761362177307840781
:10378000950709F059C040E00E948A17882309F480
:103790007BCFB5016D587E4EA801C4010E942CF468
:1037A00057C0FC01148111501221A114B10481F4FD
:1037B00011110EC0452B462B472B79F5EB81FC816F
:1037C00085899689A789B08D84839583A683B783DD
:1037D000AB81BC815996ED91FC915A9714966D91ED
:1037E0007D918D919C911797625071098109910982
:1037F000258504C0660F771F881F991F2A95D2F769
:103800002685378540895189620F731F841F951F54
:10381000610F711D811D911D9DCFAB81BC811496DF
:103820004D915D916D917C91179729813A810E940C
:1038300059188111CDCF28CF9401AB01BC018091E3
:103840007C1390917D130E94A116882309F41CCF4C
:10385000800E911EEB81FC8180859185A285B385C8
:10386000800F911FA11DB11D80879187A287B3870B
:10387000C01AD10A45CFC70109CFDF92EF92FF925C
:103880000F931F93CF93DF93FC012381223008F421
:1038900070C000851185228533850F71112722277D
:1038A0003327012B022B032B09F063C0411551056F
:1038B00011F0FA0110827A01EB018C018DE0D82E13
:1038C00040E250E0BE01C8010E94251B80329105F4
:1038D00071F021E0892B09F420E0822F8195DF919E
:1038E000CF911F910F91FF90EF90DF900895288165
:1038F000222309F440C0253E11F02E3231F4E114A8
:10390000F104F1F2F7011082DBCFE114F10439F197
:103910003B853F733F3019F54A8D5B8D452BF9F49C
:103920002F713FEF320F3230D0F42150330BD29E43
:10393000C001D39E900D1124D701A80FB91FFE011D
:1039400020E0AD01253078F431813D932F5F329630
:103950002D30C1F7288126FF02C0FA0115862B857C
:1039600023FDAECFBCCF2B3010F43481EECF3681A7
:10397000ECCF8FEFB4CF80E0B2CFEF92FF920F93F6
:103980001F93CF93DF93CDB7DEB7A0970FB6F89410
:10399000DEBF0FBECDBF7C018B014AE251E1BE010B
:1039A0006F5F7F4FC7010E943D1C1816A4F4CE0123
:1039B00001960E941A17882381F3BE016F5F7F4F23
:1039C00085E491E10E94351765E471E1C8010E9428
:1039D00035F4892B11F7A0960FB6F894DEBF0FBE11
:1039E000CDBFDF91CF911F910F91FF90EF90089580
:1039F000CF93DF93EC01462F41706C857D858E85DA
:103A00009F850E948A17882351F0888920E2829F2F
:103A1000C00111248D589E4EDF91CF91089590E002
:103A200080E0FACFCF93DF93EC018B81882349F1BB
:103A3000898187FF22C061E0CE010E94F81CFC0151
:103A4000892BF9F08081853EE1F08B81823040F452
:103A500089899A89AB89BC89848F958FA68FB78F06
:103A60008D899E89938F828F8D899E89AF89B88D2C
:103A7000B58BA48B89818F778983DF91CF910C944B
:103A80004B1781E0888380E0DF91CF9108952F92DA
:103A90003F924F925F926F927F928F929F92AF92DE
:103AA000BF92CF92DF92EF92FF920F931F93CF932B
:103AB000DF9300D01F92CDB7DEB78C014B011A0106
:103AC000DC0113968C911397813009F0CAC01196CE
:103AD0008C9181FFC6C082FDB0C06101D8011896EB
:103AE0004D915D916D917C911B97C114D10409F4A6
:103AF0001AC159968D919C915A97FC0174802FEFB1
:103B0000270D2A013B0139E0769467945794479436
:103B10003A95D1F7722E74207A01F1E0FF227110EC
:103B200020C0E114F104E9F414964D915D916D917A
:103B30007C911797411551056105710509F097C0F2
:103B400055968D919D910D90BC91A02D0097A1054A
:103B5000B10509F0A5C0C8010E949619882309F48F
:103B600080C0A12C82E0B82EAE18BF08CA14DB04B6
:103B700008F45601D80159964D915C915A971496C4
:103B80008D919D910D90BC91A02D0297A109B10935
:103B9000FA01258504C0880F991FAA1FBB1F2A950B
:103BA000D2F74685578560897189840F951FA61FB6
:103BB000B71F9C01AD01270D311D411D511D29016C
:103BC0003A01A11432E0B30609F078C08091731372
:103BD00090917413A0917513B091761348165906FD
:103BE0006A067B0669F410927B138FEF9FEFDC016E
:103BF0008093731390937413A0937513B0937613FB
:103C00009401B301A20180917C1390917D130E94D5
:103C10003D16882331F1F80180859185A285B38511
:103C20008A0D9B1DA11DB11D80879187A287B38737
:103C30008A0C9B1CCA18DB0851CFF80141895289B4
:103C40006389748980859185A285B3854817590752
:103C50006A077B0709F441CFC8010E94911A8111BC
:103C60003CCF81E0D8018C938FEF9FEF72C09E0113
:103C70002F5F3F4F0E945918882399F389819A81B9
:103C8000AB81BC81F801218D328DF901278920316A
:103C900069F4883FFFEF9F07A105B10508F05BCFEE
:103CA000F80184839583A683B7835BCF883F2FEF8A
:103CB0009207A2072FE0B20798F34DCFE114F10469
:103CC00051F5D80118964D915D916D917C911B979E
:103CD00051968D919D910D90BC91A02D481759073B
:103CE0006A077B07C0F00E944B17882309F4B9CFFD
:103CF00081E080937B13409273135092741360920F
:103D0000751370927613A501B401C7018D589E4EAC
:103D10000E942CF480CF41E0C301B2010E948A17B7
:103D20008111F1CF9ECFF80181899289A389B4894D
:103D300084179507A607B70738F48181418B528B0A
:103D4000638B748B80688183F801818183FD18C047
:103D5000C1010F900F900F900F90DF91CF911F91A5
:103D60000F91FF90EF90DF90CF90BF90AF909F901A
:103D70008F907F906F905F904F903F902F9008951D
:103D8000C8010E94121D8111E3CF6BCFCF93DF9347
:103D9000EC010E94121D1B82DF91CF9108951092B9
:103DA000E71080911D148F7B8B7F80931D140E94E0
:103DB000307B882321F08DE795E10C94C61E089591
:103DC000CF93DF93EB01FC012381211104C080E03C
:103DD000DF91CF9108952250223028F48FE288831A
:103DE000198281E0F5CF60E00E94F81C009779F31A
:103DF000DC0160E080E09EE22D91203299F0883075
:103E000031F49E01260F311DF90190836F5F9E01F1
:103E1000260F311DAD0141505109FA014081F901D0
:103E200040836F5F8F5F8B3039F7FE01E60FF11D26
:103E30001082D7CFCF93DF93EC01CB01E881F981DA
:103E4000608171810E94E01E28813981D901ED9144
:103E5000FC91AA81BB818C919081992359F089367C
:103E6000C8F4CF010196F901918380838C918F5F13
:103E70008C93EACF893670F48FE28083E881F981F0
:103E800080819181019691838083EA81FB81808189
:103E90008F5F8083DF91CF9108950F931F93CF930E
:103EA000DF9300D000D01F92CDB7DEB79C012F5F0B
:103EB0003F4F3F832E832FE2FC01208381E08D83DF
:103EC000CE0106969A83898301979C838B8310E0A9
:103ED0000BE180911314181758F4109FB0011124AE
:103EE00061597B4ECE0101960E941A1F1F5FF1CFD0
:103EF0008D818B3558F46DE775E1CE0101960E94F6
:103F00001A1F8E819F8101979F838E83EE81FF818F
:103F1000108227960FB6F894DEBF0FBECDBFDF919B
:103F2000CF911F910F91089540E050E0BA010C9499
:103F3000911A4F925F926F927F92AF92BF92CF92FF
:103F4000DF92EF92FF920F931F93CF93DF931F9215
:103F5000CDB7DEB78C017B015A01C22EDB01599629
:103F60008D919C91F801928F818FCB010E94941FBB
:103F7000712CF70180859185A285B385418952898D
:103F80006389748984179507A607B70708F052C09C
:103F900055E0B695A795979587955A95D1F7F82F3F
:103FA000FF70DF2ED70113968C91823010F480E0E1
:103FB000DBC041E050E0BE016F5F7F4FC7010E9450
:103FC000251B0197A1F7F70180859185A285B3850F
:103FD0004F96A11DB11D80879187A287B387F0E21C
:103FE000DF9EB00111246D587E4E61157105F9F206
:103FF000DB018C91882341F0853E09F04CC077208D
:1040000029F077247394B5CF71100EC0809173138B
:1040100090917413A0917513B0917613F801848771
:104020009587A687B787D08ADB018C918111E9CF6C
:10403000772473948C2D8274823409F0B8CF772062
:1040400009F4A2C0F801D08861E0C8010E94F81C00
:10405000009709F4ACCF20E2DC011D922A95E9F724
:104060002BE0F501DC0101900D922A95E1F721E2A8
:1040700038E2FC01318B208B40E058E057874687BF
:10408000338B228B318F208F578B468B0E944B179F
:10409000811109C08CCF4BE050E0C5010E941FF494
:1040A000892B09F066CFF0E2DF9ED00111249D013B
:1040B0002D583E4EF9018385817121F08C2D82713E
:1040C00009F0FCC0F801818D928D409173135091DD
:1040D00074136091751370917613448755876687C2
:1040E0007787D08AFD01ED58FE4E44885588712CA3
:1040F000612C320155244424D80155964D925D928D
:104100006D927C925897428D538D70E060E0442907
:1041100055296629772955964D935D936D937C9328
:104120005897D9011B962C91287109F0B9C0848D3C
:10413000958DA68DB78DF801818B928BA38BB48B57
:1041400081E083838C2D8F70F80181831482158226
:1041500016821782108611861286138681E0C4FEAD
:1041600003C0C8010E94FDB30F90DF91CF911F9152
:104170000F91FF90EF90DF90CF90BF90AF907F9026
:104180006F905F904F900895D70113968C9113977D
:10419000823009F40CCF51968D919D910D90BC9178
:1041A000A02D803E9F4FAF41B10508F000CFC70161
:1041B0000E949619882309F4FACE0E944B1788238F
:1041C00009F4F5CED7015996ED91FC915A971496C2
:1041D0004D905D906D907C901797B2E04B1A51080E
:1041E00061087108858504C0440C551C661C771C49
:1041F0008A95D2F786859785A089B189480E591E80
:104200006A1E7B1E81E080937B1340927313509251
:1042100074136092751370927613E3E7F1E180E016
:1042200092E0DF019C011D9221503040E1F7DD2436
:10423000D394D7015996ED91FC918481D81698F4C6
:1042400023E731E1B301A2014D0D511D611D711D27
:1042500080917C1390917D130E943D16882309F470
:10426000A6CED394E6CF258580E092E0A0E0B0E032
:1042700004C0880F991FAA1FBB1F2A95D2F7F70108
:104280004189528963897489840F951FA61FB71FBE
:10429000818B928BA38BB48B83E791E1D12CDBCE06
:1042A000203161F498012F5E3F4F0E94DC18882373
:1042B00029F084E0D80113968C9344CFD80113964B
:1042C0001C9275CE0F930FB70F9300916E000B7F6A
:1042D00000936E0078940F930BB70F930CB70F9267
:1042E0001F922F933F934F935F936F937F938F937F
:1042F0009F93AF93BF93EF93FF9311240E94522E8D
:10430000FF91EF91BF91AF919F918F917F916F91AD
:104310005F914F913F912F911F900F900CBF0F9184
:104320000BBF0F910460F89400936E000F910FBFC4
:104330000F911895CF93DF93C0915A11D0915B11D3
:10434000209729F160915611709157118091581161
:10435000909159110E9423F26E5F7F4F24976C1742
:104360007D07ACF47093A7066093A6060E9424D341
:10437000605A75418F4F9F4F6093A8067093A906AE
:104380008093AA069093AB06DF91CF910895109287
:10439000A8061092A9061092AA061092AB06F4CFB6
:1043A00010926B0580913F02909140020F97181672
:1043B000190614F490E080E0909391138093901389
:1043C0000E9430D3109292132C9810925B1110928D
:1043D0005A110E949A2110925C1180910B018071F8
:1043E000809309010895EF92FF920F931F93CF934B
:1043F000DF93C82F7B018A018091050A8130B1F4D7
:104400000E945280C7010E94D57D84EA93E10E94F8
:10441000D57DC7FD29C06C2F0C2E000C770B880BA7
:10442000990B0E9464818AE00E94CE7D0E94D02177
:1044300080917806811127C081E08093780680E81A
:104440008093050AD5E1D150469A99F069E170E070
:1044500080E090E00E94F1D2469860E570E080E054
:1044600090E00E94F1D2EFCF80EA93E10E94D57DE7
:10447000DACF69E973E1CF3F11F06DE973E140E014
:10448000C8010E945A80DF91CF911F910F91FF9038
:10449000EF9008952F923F924F925F926F927F928A
:1044A0008F929F92AF92BF92CF92DF92EF92FF9244
:1044B0000F931F93CF93DF9300D0CDB7DEB79B83CD
:1044C0008A836B015A0129831801870181E090E0FA
:1044D0002F3F11F090E080E025E0289FF001299F18
:1044E000F00D1124E759FE4E8481882309F48AC017
:1044F000EA81FB8114821582168217821086EA8176
:10450000FB8184818230B9F0833009F4FBC08130B3
:1045100009F062C02581368147815085F6016081AE
:104520007181828193810E9417EA87FD55C082E0E4
:10453000EA81FB818483EA81FB8185809680A78064
:10454000B084F601C080D180E280F380B80190E0B1
:1045500080E00E941CEA2B013C01F981F1111CC092
:1045600080910F0B8823A9F020E030E040E85EE363
:10457000C301B2010E947DEA9B01AC01C501B401F7
:104580000E94B6F0A70196010E9417EA18160CF4D3
:1045900064C080E880934C02A3019201C501B4017C
:1045A0000E94B6F0A70196010E9417EA18160CF4B3
:1045B00099C00E9424D36B017C019101A8EEB3E065
:1045C0000E94A7F0C60ED71EE81EF91EEA81FB81E5
:1045D000C082D182E282F3820F900F900F90DF9120
:1045E000CF911F910F91FF90EF90DF90CF90BF90F0
:1045F000AF909F908F907F906F905F904F903F9083
:104600002F900895F5014080518062807380A3014E
:104610009201EA81FB8165817681878190850E9484
:1046200017EA882309F46BCFEA81FB814582568221
:1046300067827086FF24F39420E030E0A901F50141
:1046400060817181828193810E9417F318160CF0AA
:10465000F12CEA81FB81F48252CF23E830EC4AEA64
:104660005EE3C301B2010E947DEA9B01AC01C5017A
:10467000B4010E94B6F0A70196010E9417EA18162D
:1046800014F080E687CF20E030E040E05FE3C30134
:10469000B2010E947DEA9B01AC01C501B4010E94F8
:1046A000B6F0A70196010E9417EA181614F080E4EC
:1046B00071CF2DEC3CEC4CE45FE3C301B2010E94EE
:1046C0007DEA9B01AC01C501B4010E94B6F0A701CF
:1046D00096010E9417EA181614F080E25BCF109240
:1046E0004C025ACF0E9424D3EA81FB8100811181C0
:1046F00022813381601B710B820B930B97FD6CCF72
:1047000083E084834EEE54E16EEF74E189810F9073
:104710000F900F90DF91CF911F910F91FF90EF902D
:10472000DF90CF90BF90AF909F908F907F906F90D1
:104730005F904F903F902F900C94F3218F929F9217
:10474000AF92BF92CF92DF92EF92FF920F931F939F
:10475000CF93DF93B0E4A0E06A2F70E0AB014B0F82
:10476000511D55954795411119C0E0EFF3E1659151
:104770007491072E000C880B990B0E941EEADF91A2
:10478000CF911F910F91FF90EF90DF90CF90BF904E
:10479000AF909F908F900895B42FE0CFA41711F0A1
:1047A000B41303C0ECEEF4E1E2CF9A0121503109D9
:1047B000220F331F220F331FF901E251FC4EE59007
:1047C000F490F901EE50FC4EC591D4918E159F05E1
:1047D0001CF3A42FC817D9070CF4BECFF901E05180
:1047E000FC4E05911491F901EC50FC4EC590D4900B
:1047F000BC016E197F09072E000C880B990B0E94D3
:104800001EEA4B015C01B601601B710B072E000C08
:10481000880B990B0E941EEA9B01AC01C501B401F3
:104820000E947DEA4B015C01BE016E197F09072ED3
:10483000000C880B990B0E941EEA9B01AC01C5017C
:10484000B4010E94B1F16B017C01B801110F880B1A
:10485000990B0E941EEA9B01AC01C701B6010E94A0
:10486000B7F08DCFCF93DF93C8E8D3E18A819B81E6
:104870000E94DAAF6C837D838E839F83C2E5D1E192
:104880008A819B810E949E236C837D838E839F837C
:10489000A8951092AC06DF91CF9108952F923F9288
:1048A0004F925F926F927F928F929F92AF92BF9240
:1048B000CF92DF92EF92FF920F931F93CF93DF93EC
:1048C000CDB7DEB763970FB6F894DEBF0FBECDBF8E
:1048D0008091660581113BC18091AC06811119C0A0
:1048E00063960FB6F894DEBF0FBECDBFDF91CF91B8
:1048F0001F910F91FF90EF90DF90CF90BF90AF90FE
:104900009F908F907F906F905F904F903F902F90EF
:1049100008950E9432240E9424D34B015C016091CF
:104920003F0270914002072E000C880B990B0E94E9
:104930001EEA9B01AC0160918C1370918D138091E4
:104940008E1390918F130E9417F318160CF446C221
:1049500080916D11882309F426C2609190137091A3
:104960009113072E000C880B990B0E941EEA698395
:104970007A838B839C833AE0E32EF12C08E210E0EB
:1049800020E0AE014F5F5F4F6CE873E182EC93E192
:104990000E944A2240908C1350908D1360908E1389
:1049A00070908F1360913D0270913E02072E000CB3
:1049B000880B990B0E941EEA9B01AC01C301B20156
:1049C0000E9417F318160CF4C9C060E060939213AC
:1049D0008091841390918513A0918613B0918713D1
:1049E0000097A105B105A9F1A5019401281B390B78
:1049F0004A0B5B0BDA01C901B7FD2BC06091821332
:104A00007091831390E080E00E941CEA9B01AC014E
:104A1000C301B2010E9417EA87FD62C200919013A0
:104A2000109191130115110561F0C301B2010E94AB
:104A300023F26E5F7F4F04501109601771070CF469
:104A400078C31092841310928513109286131092DB
:104A500087138091A2069091A306A091A406B0911D
:104A6000A506A5019401281B390B4A0B5B0BDA0143
:104A7000C901B7FD10C00E94B414D501C4018C5304
:104A8000964FAF4FBF4F8093A2069093A306A0937B
:104A9000A406B093A50620E030E046E153E460911F
:104AA00056117091571180915811909159110E948F
:104AB00017F318160CF40CC28091A8069091A90661
:104AC000A091AA06B091AB060097A105B10509F423
:104AD0009FC1A5019401281B390B4A0B5B0BDA011E
:104AE000C901B7FD95C1C0905611D0905711E09003
:104AF0005811F09059116091A6067091A70690E0A8
:104B000080E00E941CEA9B01AC01C701B6010E9433
:104B100017EA87FDEDC100915A1110915B11011543
:104B2000110561F0C701B6010E9423F26E5F7F4F4D
:104B3000C8010497681779070CF458C11092A806A9
:104B40001092A9061092AA061092AB0665C141E028
:104B500070E060E080EE93E10E945A8060913F0235
:104B600070914002072E000C880B990B0E941EEAE0
:104B70009B01AC01C301B2010E9417EA87FF25CF58
:104B800060919013709191136115710509F4C8C279
:104B9000072E000C880B990B0E941EEAA3019201BC
:104BA0000E94B6F06B017C0120E030E040E251EC65
:104BB0000E9417EA87FDB4C280916D118111B0C2C5
:104BC00020E030E040E251E4C701B6010E9417F353
:104BD00018160CF4C6C28091A1068111C6C280913C
:104BE000990690919A06A0919B06B0919C068D83A0
:104BF0009E83AF83B88720919D0630919E06409199
:104C00009F065091A00629873A874B875C87A301AE
:104C1000920160918D0670918E0680918F06909121
:104C200090060E94B6F020919B1330919C13409106
:104C30009D1350919E130E947DEA2D813E814F81EC
:104C400058850E94B6F020ED3CEC4CE45DE30E94F8
:104C50007DEA2D813E814F8158850E94B7F06D839A
:104C60007E838F8398876093990670939A068093CA
:104C70009B0690939C068091971390919813A09116
:104C80009913B0919A138D879E87AF87B88B29852A
:104C90003A854B855C85C701B6010E94B7F0162F97
:104CA000072F1C0120E030E0A9010E9417EA87FDD0
:104CB0006FC22D853E854F85588960E070E08FE793
:104CC00093E40E94B1F16987798B8A8B9B8B212FAA
:104CD000302FA1010E9417EA87FF04C019850989B6
:104CE0002A883B88812F902FD10180939D06909335
:104CF0009E06A0939F06B093A00620919313309137
:104D000094134091951350919613C701B6010E94D8
:104D10007DEA6B017C01C0929106D0929206E092EE
:104D20009306F0929406212F302FA1016D857E8588
:104D30008F8598890E947DEA9B01AC01209395069E
:104D4000309396064093970650939806C701B60194
:104D50000E94B7F02D813E814F8158850E94B7F0A7
:104D600020E030E0A9010E94B7F06B017C0120E057
:104D700030E0A9010E9417EA87FDD5C120E030E0AC
:104D80004FE753E4C701B6010E9417F318160CF061
:104D9000C0C16FE740928D0650928E0660928F06DA
:104DA0007092900613CE8091691190916A11A09132
:104DB0006B11B0916C110097A105B10509F4CDCD2F
:104DC000A5019401281B390B4A0B5B0BDA01C901C1
:104DD000B7FDC3CD81E080936D11BFCD4EE055E1AD
:104DE0006BE175E180E00E94F321B2CD7093A706DC
:104DF0006093A6060E9424D3605A75418F4F9F4F3F
:104E00006093A8067093A9068093AA069093AB06B8
:104E100000915A1110915B1180917211882309F44D
:104E200040C0B801110F880B990B0E941EEA6983DC
:104E30007A838B839C8394E0E92EF12C04E110E0CB
:104E40002FEFAE014F5F5F4F66E571E18BEC93E1B1
:104E50000E944A2280917211882319F010925C11ED
:104E60003FCD40905611509057116090581170905E
:104E7000591120E030E040EA50E4C301B2010E9441
:104E800017F387FD0AC020E030E046E153E4C30198
:104E9000B2010E9417EA18169CF560E060935C115D
:104EA0001FCD80916E1190916F11A0917011B091F2
:104EB00071110097A105B10509F4B3CF881A990AB9
:104EC000AA0ABB0AB7FCADCF81E080937211A9CFCB
:104ED0004EE055E16BE175E18FEF0E94F321ECCDDF
:104EE00042EC53E161ED73E180E00E94F321B1CD2A
:104EF00042EC53E161ED73E18FEF0E94F32188CF23
:104F000060915A1170915B116115710509F40DC121
:104F1000072E000C880B990B0E941EEAA301920138
:104F20000E94B6F04B015C0120E030E040E251EC21
:104F30000E9417EA87FDF9C020E030E040E251E42A
:104F4000C501B4010E9417F318160CF405C1809135
:104F5000611190916211A0916311B09164118D83E0
:104F60009E83AF83B88780911F02811109C1209170
:104F7000890630918A0640918B0650918C06C0902C
:104F80008506D0908606E0908706F0908806C501D9
:104F9000B4010E94B7F0162F072F382E292E20E0DB
:104FA00030E0A9010E9417EA87FDF7C02D813E81FC
:104FB0004F81588560E070E08FE793E40E94B1F183
:104FC0006D877987898B9A8B212F302F432D522D16
:104FD0000E9417EA87FF04C01D85098539882A8841
:104FE000812F902FA32DB22D8093890690938A064E
:104FF000A0938B06B0938C0620915D1130915E11C9
:1050000040915F1150916011C501B4010E947DEA89
:105010004B015C0180927D0690927E06A0927F06F5
:10502000B0928006212F302F432D522D6D817E812D
:105030008F8198850E947DEA6D837E838F83988718
:105040006093810670938206809383069093840612
:10505000A30192016091790670917A0680917B0696
:1050600090917C060E94B6F02091651130916611F6
:1050700040916711509168110E947DEAA701960145
:105080000E94B6F020ED3CEC4CE45DE30E947DEA2A
:10509000A70196010E94B7F06B017C01C0928506C2
:1050A000D0928606E0928706F092880640927906B2
:1050B00050927A0660927B0670927C062D813E812A
:1050C0004F815885C501B4010E94B7F0A701960130
:1050D0000E94B7F020E030E0A9010E94B7F06B0118
:1050E0007C0120E030E0A9010E9417EA87FDD5CEBF
:1050F00020E030E04FE753E4C701B6010E9417F308
:1051000018166CF1C701B6010E9423F275956795D8
:10511000C5CEC701B6010E9423F2759567953ACEB8
:1051200081E08093A10660E035CE81E080931F028C
:10513000B4CE70938313609382130E9424D3605D76
:105140007A488F4F9F4F6093841370938513809399
:105150008613909387137DCC81E080931F026FE7C5
:105160009DCE81E08093A10614CE1092A1061986EF
:105170001A861B861C861D821E821F82188647CDBA
:1051800010921F02C12CD12C7601A7019601FFCEEF
:1051900010E000E0212C312CA5CD10E000E0312CF6
:1051A000212C1ECFCF92DF92EF92FF92CF93DF930D
:1051B000EC01C880D980EA80FB808EE893E10E94F0
:1051C000D57DC701B6010E946481CC80DD80EE8070
:1051D000FF808CE295E20E94D57DC701B6010E9456
:1051E0006481C884D984EA84FB8488E295E20E94C1
:1051F000D57DC701B6010E9464818AE0DF91CF911D
:10520000FF90EF90DF90CF900C94CE7DBC01209169
:105210005A0630915B0640915A0650915B0624175E
:10522000350731F481E02617370709F080E008954B
:105230009A01F1CF0F930FB70F9300916E000F9368
:105240000B7F00936E0000916F000D7F00936F0045
:105250000F930BB70F930CB70F921F922F933F939F
:105260004F935F936F937F938F939F93AF93BF936E
:10527000EF93FF9311240E943530FF91EF91BF917E
:10528000AF919F918F917F916F915F914F913F91DE
:105290002F911F900F900CBF0F910BBF0F910260C9
:1052A000F89400936F000F9100936E000F910FBF61
:1052B0000F9118950000000000008091340880FFD5
:1052C00020C089988FEF8093AF068091340886952F
:1052D00080FF1AC08F988FEF8093B00680913408BA
:1052E0008695869580FF13C080910B018270809314
:1052F000090143988FEF8093B10600000000000081
:105300000895899A81E0DFCF8F9A81E0E5CF80917F
:105310000B018095827080930901439A81E0EBCF65
:10532000CF93DF9300D01F92CDB7DEB780912108D5
:10533000882389F083E390E09C838B831A8219820F
:105340009E012F5F3F4F40E150E062E278E0CE01E6
:1053500003960E948E800F900F900F900F90DF9118
:10536000CF910895CF93DF9300D01F921F92CDB7B6
:10537000DEB781E08093210880E1E2E2F8E0DF011E
:105380001D928A95E9F70E94902986E18D8382E338
:1053900090E09C838B831A8219829E012F5F3F4F7E
:1053A00041E050E0BE016B5F7F4FCE0103960E944B
:1053B0008E800F900F900F900F900F90DF91CF91F4
:1053C0000895CF92DF92EF92FF92CF93DF93EC019B
:1053D00008960E94AC746B017C0120E030E0A901CA
:1053E0000E9417EA20E030E0A901882359F0CE019D
:1053F0000E9439779B01AC01C701B6010E947DEA8A
:105400009B01AC01688579858A859B850E94B6F0F1
:10541000688779878A879B87DF91CF91FF90EF908C
:10542000DF90CF90089520913F02309140022F509D
:105430003109821793070CF49C0130939113209348
:1054400090130C9430D3CF92DF92EF92FF920F9390
:105450001F93CF93DF93C9E9D0E107EF1AE0C12C86
:10546000D12C7601C39469917991899199910E9487
:105470001CEA288939894A895B890E947DEA0E9451
:105480002AF2F80161937193819391938F01C6166B
:10549000D706E806F90610F46B017C01F0E1C93A81
:1054A000DF0709F76FEF7FEFCB01A70196010E949D
:1054B0005BF02093070B3093080B4093090B50933C
:1054C0000A0B23EF34E045E35FE36091F30A709148
:1054D000F40A8091F50A9091F60A0E947DEA2AE189
:1054E00036EF45E95EE30E94B1F16B017C0160910A
:1054F000991070919A1080919B1090919C100E942D
:105500001CEA9B01AC01C701B6010E947DEA0E9422
:1055100065F360930B0B70930C0B80930D0B9093C2
:105520000E0BDF91CF911F910F91FF90EF90DF90C5
:10553000CF9008950F931F93CF93DF930DEA10E15F
:10554000C1E1DBE0F80121913191419151918F014D
:1055500060E070E080E89FE30E94B1F16993799385
:1055600089939993FBE0C132DF0761F70E9408CC71
:10557000DF91CF911F910F910C94232A9091D71313
:105580008091D813981306C080919610909197102F
:10559000892B21F080E00E94B785F0CF089590918B
:1055A000D7138091D813981308C0809196109091CA
:1055B0009710892B11F40C94FC7A80E00E94B78537
:1055C000EECFCF92DF92EF92FF92CF93DF932091B5
:1055D000130A222329F1EC0108960E94AC746B0196
:1055E0007C0120E030E0A9010E9417EA20E030E0D1
:1055F000A901882359F0CE010E9439779B01AC01A3
:10560000C701B6010E947DEA9B01AC0168857985DE
:105610008A859B850E94B7F0688779878A879B87F0
:10562000DF91CF91FF90EF90DF90CF900895CF92D0
:10563000DF92EF92FF928091AD04882309F457C066
:10564000C090A904D090AA04E090AB04F090AC0400
:1056500020E030E0A901C701B6010E9417EA8823C3
:1056600009F445C020E030E040E05FE3C701B60147
:105670000E947DEA9B01AC010E947DEA2BED3FE098
:1056800049E450E40E947DEA9B01AC0160E070E0D7
:1056900080E89FE30E94B1F16B017C01C0927F041E
:1056A000D0928004E0928104F09282046091000222
:1056B00070910102072E000C880B990B0E941EEAC4
:1056C0002AE037ED43E25CE30E947DEAA701960100
:1056D0000E947DEA6093670270936802809369027A
:1056E00090936A02FF90EF90DF90CF900895C12CC5
:1056F000D12C80E8E82E8FE3F82ED0CF4F925F9226
:105700006F927F928F929F92AF92BF92CF92DF92D1
:10571000EF92FF920F931F93CF93DF93CDB7DEB736
:1057200068970FB6F894DEBF0FBECDBF8C015B014A
:105730005A834983FC01EF5BFF4F60817181828155
:1057400093810E941CEA6B017C01D5012D913D9152
:105750004D915C910E947DEA0E9495F12B013C01E4
:10576000E981FA812081318142815381C701B601EB
:105770000E947DEA0E9495F14B015C01C301B201D8
:105780000E942AF2698B7A8B8B8B9C8B6837710510
:105790008105910540F428E730E040E050E0298B96
:1057A0003A8B4B8B5C8BC501B4010E942AF26D874A
:1057B0007E878F87988B683771058105910540F446
:1057C00088E790E0A0E0B0E08D879E87AF87B88B38
:1057D000F801E35BFF4F20813181428153812983AE
:1057E0003A834B835C83CA01B9010E941EEA2B01F4
:1057F0003C0169897A898B899C890E941CEA6987A6
:105800007A878B879C8720E030E0A901C301B20131
:105810000E9417EA882309F43BC1A7019601C7013A
:10582000B6010E947DEA4B015C0129853A854B85D2
:105830005C85CA01B9010E947DEA9B01AC01C501EA
:10584000B4010E94B6F04B015C01A3019201C301B7
:10585000B2010E94B7F09B01AC01C501B4010E94E6
:10586000B1F10E9495F10E942AF26D837E838F83AD
:10587000988769817A818B819C81909580957095BC
:1058800061957F4F8F4F9F4F0E941EEA4B015C0135
:105890006D857E858F8598890E941CEA69837A834D
:1058A0008B839C8320E030E0A901C501B4010E94F4
:1058B00017EA882309F4F0C029813A814B815C8181
:1058C000CA01B9010E947DEA6D8B7E8B8F8B988F08
:1058D000A7019601C701B6010E947DEA9B01AC01B8
:1058E0006D897E898F89988D0E94B6F06B017C014D
:1058F000A5019401C501B4010E94B7F09B01AC0160
:10590000C701B6010E94B1F10E9459F2D8019596E3
:105910008D909D90AD90BC909897750164012D81FC
:105920003E814F815885C21AD30AE40AF50A0E94C3
:105930002AF2C61AD70AE80AF90AF7FE6EC020E072
:1059400030E0A901C301B2010E9417EA882309F4DB
:10595000A7C0C501B4010E941CEA6B017C01A30130
:105960009201C301B2010E94B7F09B01AC01C701D3
:10597000B6010E947DEA6B017C0129853A854B8541
:105980005C85CA01B9010E947DEA9B01AC01C70197
:10599000B6010E94B6F06B017C0129813A814B81EE
:1059A0005C81CA01B9010E947DEA9B01AC01C7017B
:1059B000B6010E94B7F06B017C0120E030E040E8C6
:1059C00050E4C301B2010E947DEA9B01AC01C70112
:1059D000B6010E94B1F10E9495F16B017C0120E0BB
:1059E00030E0A9010E9417F318161CF0C12CD12C2D
:1059F0007601C701B6010E942AF26D837E838F83F0
:105A0000988786169706A806B90620F48D829E828E
:105A1000AF82B886C12CD12C76018D819E81AF8159
:105A2000B885F80181A792A7A3A7B4A7C80ED91E6D
:105A3000EA1EFB1EC5A6D6A6E7A6F0AAEB5BFF4FA3
:105A400029893A894B895C89208331834283538336
:105A500034968D859E85AF85B88980839183A28396
:105A6000B38368960FB6F894DEBF0FBECDBFDF914B
:105A7000CF911F910F91FF90EF90DF90CF90BF904B
:105A8000AF909F908F907F906F905F904F90089510
:105A900060E070E0CB01E5CE60E070E0CB0134CF98
:105AA00060E070E0CB0197CF90916F0081E091FDB5
:105AB00002C080E0089590916F009D7F90936F00E9
:105AC0000895EFE6F0E08081826080830895CF93AF
:105AD000C82F0E94542D94E0C99F90011124F90110
